:020000040800F2
:100000000000042079360008AD320008AF32000845
:10001000B1320008B3320008B53200080000000019
:10002000000000000000000000000000B7320008DF
:10003000B932000800000000BB320008BD320008E1
:10004000C9360008C9360008C9360008C936000894
:10005000C9360008C9360008C9360008C936000884
:10006000C9360008C9360008C9360008C936000874
:10007000C9360008C9320008C9360008E93200084C
:10008000C9360008C9360008F9320008C936000828
:10009000C9360008C9360008C9360008C936000844
:1000A000C9360008C9360008C9360008C936000834
:1000B000C9360008C9360008C9360008C936000824
:1000C000C9360008C9360008C9360008C936000814
:1000D000C9360008C9360008C9360008C936000804
:1000E000C9360008C9360008C9360008C9360008F4
:1000F000C9360008C9360008C9360008C9360008E4
:10010000C9360008C9360008C9360008C9360008D3
:10011000D9320008C9360008C9360008C9360008B7
:10012000C9360008C9360008C9360008C9360008B3
:10013000C9360008000000000000000000000000B8
:10014000000000000000000000000000C9360008A8
:10015000C9360008C9360008C9360008C936000883
:10016000C9360008C9360008C9360008C936000873
:10017000C9360008C9360008000000000000000071
:10018000C9360008C9360008C9360008C936000853
:10019000C9360008C936000800000000C93600084A
:1001A000000000000000000000000000C936000848
:1001B000C9360008C9360008000000000000000031
:1001C000000000000000000000000000000000002F
:1001D000000000000000000000000000C936000818
:1001E00010B5054C237833B9044B13B10448AFF371
:1001F00000800123237010BD1C00002000000000BF
:100200002C37000808B5034B1BB103490348AFF373
:10021000008008BD00000000200000202C370008EE
:1002200053B94AB9002908BF00281CBF4FF0FF315D
:100230004FF0FF3000F07AB9ADF1080C6DE904CE53
:1002400000F006F8DDF804E0DDE9022304B07047B1
:100250002DE9F0478C460D460446089E002B51D1EF
:100260008A4217466DD9B2FA82FEBEF1000F0BD05A
:10027000CEF1200C01FA0EF520FA0CFC02FA0EF772
:100280004CEA050C00FA0EF44FEA174A250CBCFBA9
:10029000FAF81FFA87F90AFB18CC45EA0C4508FB67
:1002A00009F3AB420AD9ED1908F1FF3280F023813E
:1002B000AB4240F22081A8F102083D44ED1AA4B2FD
:1002C000B5FBFAF00AFB105544EA054400FB09F9B6
:1002D000A14509D9E41900F1FF3380F00A81A14555
:1002E00040F2078102383C44A4EB090440EA08408C
:1002F0000021002E61D024FA0EF4002334607360D4
:10030000BDE8F0878B4207D9002E54D0002186E843
:1003100021000846BDE8F087B3FA83F1002940F0D8
:100320008E80AB4202D3824200F2FA80841A65EBDF
:1003300003050120AC46002E3FD086E81010BDE832
:10034000F08712B90127B7FBF2F7B7FA87FEBEF1C3
:10035000000F34D1EB1B3A0C1FFA87FC0121B3FBD1
:10036000F2F8250C02FB183345EA03450CFB08F3B1
:10037000AB4207D9ED1908F1FF3002D2AB4200F2CF
:10038000D1808046ED1AA3B2B5FBF2F002FB105506
:1003900043EA05440CFB00FCA44507D9E41900F12D
:1003A000FF3302D2A44500F2B8801846A4EB0C0437
:1003B00040EA08409DE731463046BDE8F087CEF17F
:1003C000200405FA0EF307FA0EF720FA04F83A0CA7
:1003D00025FA04F448EA0308B4FBF2F14FEA1845A1
:1003E00002FB11441FFA87FC45EA044501FB0CF3AC
:1003F000AB4200FA0EF409D9ED1901F1FF3080F09B
:100400008A80AB4240F2878002393D44EB1A1FFAE2
:1004100088F5B3FBF2F002FB103345EA034500FB1D
:100420000CF3AB4207D9ED1900F1FF386FD2AB42A4
:100430006DD902383D44EB1A40EA01418FE7C1F122
:10044000200722FA07F88B4005FA01F448EA030373
:1004500020FA07FE4FEA134CFD404EEA040EB5FBAE
:10046000FCF94FEA1E440CFB19551FFA83F844EAC5
:10047000054509FB08F4AC4202FA01F200FA01FA60
:1004800008D9ED1809F1FF3043D2AC4241D9A9F1A6
:1004900002091D442D1B1FFA8EFEB5FBFCF00CFB60
:1004A00010554EEA054400FB08F8A04507D9E418AA
:1004B00000F1FF3529D2A04527D902381C4440EA73
:1004C0000940A4EB0804A0FB02894C45C6464D46F2
:1004D00015D312D056B1BAEB0E0364EB050404FA3F
:1004E00007F7CB401F43CC40376074600021BDE864
:1004F000F0871846F8E69046E0E6C245EAD2B8EB47
:10050000020E69EB03050138E4E72846D7E74046C9
:1005100091E78146BEE7014678E702383C4445E76B
:10052000084608E7A8F102083D442BE7704700BFE2
:1005300010B504460E4B18784FF47A73B3FBF0F302
:100540000C4A1068B0FBF3F000F0FEFA68B90F2C0B
:1005500001D9012010BD002221464FF0FF3000F0EC
:10056000B7FA054B1C60002010BD012010BD00BF74
:1005700000000020100000200400002008B5032027
:1005800000F094FA0020FFF7D3FF02F0C3FD002033
:1005900008BD0000034A1168034B1B780B4413602D
:1005A000704700BF5800002000000020014B186871
:1005B000704700BF5800002038B50446FFF7F6FF2B
:1005C0000546B4F1FF3F02D0044B1B781C44FFF7F3
:1005D000EDFF401B8442FAD838BD00BF0000002068
:1005E000494B5A6822F440325A605A6841680A43BB
:1005F0005A600268536823F480735360026853683A
:10060000016943EA012353600268536823F0407391
:1006100053600268536881680B43536002689368B3
:1006200023F40063936002689368C1680B4393608E
:10063000826A364B9A4249D00268936823F070630D
:10064000936002689368816A0B43936002689368C1
:1006500023F04053936002689368C16A0B43936030
:100660000268936823F002039360026893688169CB
:1006700043EA41039360036A002B32D10268536856
:1006800023F4006353600268D36A23F47003D362D7
:100690000168CB6AC269013A43EA0253CB6202683D
:1006A000936823F40073936002689368016B43EAD4
:1006B000412393600268936823F480639360026827
:1006C0009368416943EA81239360704702689368A5
:1006D00023F0706393600268936823F04053936043
:1006E000BEE70268536843F40063536002685368CE
:1006F00023F46043536001684B68426A013A43EA5D
:1007000042334B60BFE700BF002301400100000FF0
:1007100020B310B50446036C43B1236C13F0100FE3
:100720000AD00120002384F83C3010BD436480F8D7
:100730003C3002F0CBFCF0E7226C094B134043F055
:10074000020323642046FFF74BFF00206064236C04
:1007500023F0030343F001032364E3E70120704720
:10076000FDEEFFFF90F83C30012B1BD0012380F8F9
:100770003C300268936823F00103936003689A6831
:1007800012F0010F09D15968074A0A405A60026CF9
:10079000064B134043F001030364002380F83C3010
:1007A0001846704702207047DFFFFFFBFEEEFFFF99
:1007B0000368D86C70477047704738B504460268C4
:1007C00011685368C3F3401313EA51032CD0036C30
:1007D00013F0100F03D1036C43F4007303649368A8
:1007E00013F0405F19D1A369BBB9D36A13F4700F3A
:1007F00003D0936813F4806F0FD1536823F0200364
:100800005360236C23F480732364236C13F4805FA0
:1008100003D1236C43F001032364204602F0B2FAB3
:1008200023686FF012021A60236819685A68C2F3CD
:10083000C01212EA910234D0226C12F0100F03D1D0
:10084000226C42F4005222649A6812F4401F21D1B3
:100850009A6B12F4401F03D09A6812F4806F19D17A
:100860005A6812F4806F15D19A6812F0405F11D166
:10087000A2697AB95A6822F080025A60236C23F484
:1008800080532364236C13F4807F03D1236C43F0E3
:1008900001032364204600F007F923686FF00C027F
:1008A0001A60226811685368C3F38013194203D099
:1008B000136813F0010F08D1226811685368C3F35D
:1008C000806313EA51130CD138BD236C43F4803399
:1008D00023642046FFF76FFF23686FF001021A6060
:1008E000EAE7636C43F0020363646FF02005156070
:1008F0002046FFF761FF23681D60E5E730B482B052
:100900000023019390F83C30012B00F0C0800123BC
:1009100080F83C300B68092B22D90568EA689BB245
:1009200003EB43031E3B072404FA03F322EA030309
:10093000EB600B68574A93420BD00568EA688C68F5
:100940009BB203EB43031E3B04FA03F31343EB6038
:100950001BE00268D3688C6843EA0463D36014E048
:1009600005682A699BB203EB4303072404FA03F3E7
:1009700022EA03032B6105682A698C680B8803EB64
:10098000430304FA03F313432B614B68062B24D86B
:1009900005686A6B03EB8303053B1F2404FA03F32A
:1009A00022EA03036B6305686A6B4B6803EB8303FE
:1009B000053B0C8804FA03F313436B630268364B60
:1009C0009A423AD00268344B9A423FD0002380F8D2
:1009D0003C30184602B030BC70470C2B16D8056866
:1009E0002A6B03EB8303233B1F2404FA03F322EA5D
:1009F00003032B6305682A6B4B6803EB8303233BDC
:100A00000C8804FA03F313432B63D7E70568EA6AFB
:100A100003EB8303413B1F2404FA03F322EA03039D
:100A2000EB620568EA6A4B6803EB8303413B0C8881
:100A300004FA03F31343EB62C0E70B68122BC1D136
:100A4000164A536843F480035360BBE70B68114AAE
:100A5000112B18BF9342B9D1104A536843F40003D5
:100A600053600A680B4B9A42B0D10D4B1B680D4A7C
:100A7000A2FB03239B0C03EB83035A00019202E0C9
:100A8000019B013B0193019B002BF9D19EE70220C2
:100A9000A0E700BF12000010002001400023014029
:100AA0001000002083DE1B43704700000649CB681E
:100AB00023F4E0631B041B0C000200F4E06003431A
:100AC000024A1A43CA60704700ED00E00000FA05D0
:100AD00030B4144BDB68C3F30223C3F10704042CC6
:100AE00028BF04241D1D062D13D9033B012505FA3B
:100AF00004F4013C2140994005FA03F3013B134003
:100B00001943002807DB0901C9B2074B195430BC4F
:100B100070470023EAE700F00F000901C9B2034B58
:100B20001954F4E700ED00E000E400E014ED00E00B
:100B3000420900F01F00012303FA00F0014B43F8C3
:100B40002200704700E100E00138B0F1807F0AD256
:100B5000064B5860F021064A82F823100020986066
:100B600007221A6070470120704700BF10E000E0C4
:100B700000ED00E0042805D0054A136823F00403C3
:100B800013607047024A136843F004031360704710
:100B900010E000E0704708B5FFF7FCFF08BD30B477
:100BA00005682C6824F480242C60046863608368E2
:100BB000402B05D0036899600368DA6030BC704749
:100BC00003689A600368D960F8E700000268D3B24E
:100BD000103B0949A1FB03131B090849C95CC16506
:100BE000032B04D8064B13408365806D7047044B7C
:100BF000134004338365F8E7ABAAAAAA7437000848
:100C000000FCFFFF836A826992B9012B0AD01BB1F5
:100C1000022B01D000207047C36A13F0807F2CD1D3
:100C200000207047C36AB3F1C07F28D0002070470E
:100C3000B2F5005F05D0022B29D9032B15D0002077
:100C40007047032B03D8DFE803F01C041C0A0020C4
:100C50007047C36A13F0807F15D100207047C36AC4
:100C6000B3F1C07F11D000207047C36A13F0807FBA
:100C700001D00120704700207047012070470120FB
:100C80007047012070470120704701207047012004
:100C90007047000070B50446FFF788FC002C5DD05B
:100CA0000546002384F83430022384F83530226866
:100CB000136823F00103136023681A6812F0010F10
:100CC0000AD0FFF773FC401B0528F5D92023636584
:100CD000032084F8350070BD1A682149114062680C
:100CE000A0680243E068024320690243606902434E
:100CF000A0690243E0690243206A02430A43616A31
:100D0000042916D01A602668756925F00705636AFC
:100D10001D43042B12D075612046FFF757FFE26D8B
:100D20003F239340836000206065012384F83530C1
:100D300070BDE16A206B01430A43E3E7A36A1D43E8
:100D4000E36A002BE7D02046FFF75CFF0028E2D0E3
:100D500040236365012084F8350070BD012070BD1B
:100D60003F8010E038B5856D90F83440012C31D0CB
:100D7000012480F8344090F83540E4B2012C04D0CE
:100D8000002380F83430022038BD0446022084F865
:100D90003500002060652046FFF701FFE26D3F232C
:100DA0009340AB602268136843F016031360226817
:100DB000536943F080035361236C23B122681368A5
:100DC00043F0080313602268136843F001031360C3
:100DD000002038BD022038BD90F83530DBB2022B40
:100DE00003D08023436501207047052380F8353008
:100DF0000268136823F001031360002070470000AD
:100E0000F0B583B0044600230193724B1D68724B0A
:100E1000A3FB0535AD0A876D3E68C26D082393407C
:100E20001E4210D003681A6812F0040F0BD01A6823
:100E300022F004021A60C26D08239340BB60436D28
:100E400043F001034365E26D012393401E4209D044
:100E50002268526912F0800F04D0BB60636D43F0CA
:100E600002036365E26D042393401E4209D02268A9
:100E7000126812F0020F04D0BB60636D43F00403EC
:100E80006365E26D102393401E4224D022681268ED
:100E900012F0080F1FD0BB6023681A6812F4802F6D
:100EA0000DD01B6813F4002F04D1236C9BB1204696
:100EB000984710E0A36C73B1204698470BE01A687E
:100EC00012F4807F03D11A6822F008021A60236CA2
:100ED0000BB120469847E26D202393401E4255D027
:100EE0002268126812F0100F50D0BB6094F83530B1
:100EF000DBB2052B0ED023681A6812F4802F33D092
:100F00001B6813F4002F2AD1636C002B3ED02046BF
:100F100098473BE02268136823F0160313602268A9
:100F2000536923F080035361236CA3B122681368D3
:100F300023F008031360E26D3F239340BB6000235E
:100F400084F83430012384F83530236D002B3FD0F2
:100F5000204698473CE0A36C002BE7D1EBE7E36B1E
:100F6000A3B12046984711E01A6812F4807F09D196
:100F70001A6822F010021A60002384F8343001232A
:100F800084F83530E36B0BB120469847636DFBB1B5
:100F9000636D13F0010F17D0052384F835302268F4
:100FA000136823F001031360019B013301939D42F9
:100FB00004D323681B6813F0010FF5D1002384F8D4
:100FC0003430012384F83530E36C0BB12046984768
:100FD00003B0F0BD10000020B5814E1BF0B583B00A
:100FE000002437E0072600E0002606FA0EF632431A
:100FF0000233664E46F82320654B1A68EB4302EA3B
:1010000003064F6817F4803F01D045EA0206604AA4
:101010001660526803EA02064F6817F4003F01D0D9
:1010200045EA02065A4A5660926803EA02064F6889
:1010300017F4801F01D045EA0206554A9660D2682F
:1010400013404E6816F4001F01D045EA0203504ACF
:10105000D36001340F2C00F297800123A3400A686B
:1010600003EA0205AB42F4D14A68122A18BF022AE9
:1010700012D14FEAD40E0EF1080E50F82E2004F0D3
:101080000706B6000F27B74022EA07020F6907FAE2
:1010900006F6324340F82E2006684FEA440E03223B
:1010A00002FA0EF2D24316404F6807F0030707FA20
:1010B0000EF73E4306604E68771E112E18BF012FB3
:1010C00001D9122E0FD186681640CF6807FA0EF7A5
:1010D0003E438660466826EA03034E68C6F3001660
:1010E000A64033434360C3681A408B6803FA0EF38B
:1010F0001A43C2604B6813F0805FAAD0254B5A6C2C
:1011000042F480425A645B6C03F480430193019B78
:10111000A3089E1C1D4A52F8262004F003064FEA3D
:10112000860E0F2606FA0EF622EA06021A4FB8427B
:101130003FF45AAF194EB0421AD006F58066B0425D
:1011400018D006F58066B04216D006F58066B0422B
:1011500014D006F58066B04212D006F58066B04223
:1011600010D006F58066B0423FF43CAF08263CE75D
:1011700001263AE7022638E7032636E7042634E755
:10118000052632E7062630E703B0F0BD00380140FF
:10119000003C0140003802400000024000040240D0
:1011A000002800F0DB8170B582B00446036813F0BC
:1011B000010F3AD0A24B9B6803F00C03042B2BD0F9
:1011C0009F4B9B6803F00C03082B20D06368B3F59A
:1011D000803F50D0002B54D1994B1A6822F48032B2
:1011E0001A601A6822F480221A606368002B5FD0AC
:1011F000FFF7DCF90546924B1B6813F4003F14D14E
:10120000FFF7D4F9401B6428F5D90320ABE18C4BE0
:101210005B6813F4800FD9D0894B1B6813F4003F2F
:1012200003D06368002B00F09B81236813F0020F4A
:1012300064D0834B9B6813F00C0F4DD0804B9B68A0
:1012400003F00C03082B42D0E368002B79D07C4AD2
:10125000136843F001031360FFF7A8F90546784BC4
:101260001B6813F0020F63D1FFF7A0F9401B02289F
:10127000F5D9032077E1724A136843F48033136091
:10128000B3E7B3F5A02F09D06D4B1A6822F4803272
:101290001A601A6822F480221A60A6E7684B1A685E
:1012A00042F480221A601A6842F480321A609CE785
:1012B000FFF77CF90546624B1B6813F4003FB4D07E
:1012C000FFF774F9401B6428F5D903204BE15C4B10
:1012D0005B6813F4800FB7D1594B1B6813F0020FF2
:1012E00004D0E368012B01D001203CE1544A13688B
:1012F00023F0F803216943EAC1031360236813F064
:10130000080F46D0636983B34D4A536F43F001031E
:101310005367FFF74BF90546494B5B6F13F0020F1C
:1013200037D1FFF743F9401B0228F5D903201AE112
:10133000434A136823F0F803216943EAC1031360A9
:10134000DCE73F4A136823F001031360FFF72EF92F
:1013500005463B4B1B6813F0020FCFD0FFF726F971
:10136000401B0228F5D90320FDE0354A536F23F0D6
:1013700001035367FFF71AF90546314B5B6F13F012
:10138000020F06D0FFF712F9401B0228F5D90320FF
:10139000E9E0236813F0040F7ED0294B1B6C13F097
:1013A000805F31D1264B1A6C42F080521A641B6C5C
:1013B00003F080530193019B0125224B1B6813F41A
:1013C000807F23D0A368012B34D0002B3CD11C4B51
:1013D0001A6F22F001021A671A6F22F004021A67CC
:1013E000A368002B46D0FFF7E1F80646144B1B6FAD
:1013F00013F0020F4FD1FFF7D9F8801B41F2883369
:101400009842F3D90320AEE00025D6E70D4A1368D1
:1014100043F480731360FFF7C9F80646094B1B6855
:1014200013F4807FCED1FFF7C1F8801B6428F5D973
:10143000032098E0024A136F43F001031367CFE7DC
:101440000038024000700040052B09D0484B1A6F4D
:1014500022F001021A671A6F22F004021A67BFE72E
:10146000434B1A6F42F004021A671A6F42F00102EE
:101470001A67B5E7FFF79AF806463D4B1B6F13F066
:10148000020F08D0FFF792F8801B41F28833984290
:10149000F3D9032067E0F5B9A369002B62D0344A81
:1014A000926802F00C02082A5FD0022B19D0304A51
:1014B000136823F080731360FFF778F804462C4B11
:1014C0001B6813F0007F47D0FFF770F8001B02285D
:1014D000F5D9032047E0264A136C23F080531364A8
:1014E000DAE7234A136823F080731360FFF75EF88E
:1014F00005461F4B1B6813F0007F06D0FFF756F818
:10150000401B0228F5D903202DE0E369226A13432A
:10151000626A43EA8213A26A5208013A43EA02432A
:10152000E26A43EA026343F00053114A53601368CE
:1015300043F080731360FFF739F804460C4B1B68C7
:1015400013F0007F06D1FFF731F8001B0228F5D910
:10155000032008E0002006E0002004E0012070479E
:10156000012000E0002002B070BD0120FBE700BFB9
:1015700000380240F8B5254B9B6803F00C03042BA0
:1015800041D0082B01D02248F8BD204B5A6802F008
:101590003F025B6813F4800F12D01C4B5968C1F3F3
:1015A000881100231B48A1FB0001FEF739FE174BF1
:1015B0005B68C3F3014301335B00B0FBF3F0F8BD9C
:1015C000124B5B68C3F388131E4600275C0100259D
:1015D000E41A65EB0705A90141EA9461A001001B2B
:1015E00061EB0501CB0043EA5073C400A01943EB43
:1015F00007018B0243EA90538402204619460023D8
:10160000FEF70EFED3E70348F8BD00BF00380240E6
:101610000024F40040787D01002800F0A28070B51D
:101620000446524B1B6803F00F038B420CD24F4A07
:10163000136823F00F030B431360136803F00F03C9
:10164000994201D0012070BD236813F0020F17D01A
:1016500013F0040F04D0464A936843F4E0539360B8
:10166000236813F0080F04D0414A936843F46043A1
:1016700093603F4A936823F0F003A06803439360AC
:101680000D46236813F0010F31D06368012B20D081
:10169000022B25D0364A126812F0020F63D034496B
:1016A0008A6822F0030213438B60FEF77FFF064631
:1016B0002F4B9B6803F00C036268B3EB820F16D0CC
:1016C000FEF774FF801B41F288339842F0D9032063
:1016D00070BD274A126812F4003FE0D1012070BDAE
:1016E000234A126812F0007FD9D1012070BD1F4B30
:1016F0001B6803F00F039D420CD21C4A136823F0B1
:101700000F032B431360136803F00F039D4201D0B6
:10171000012070BD236813F0040F06D0144A9368AB
:1017200023F4E053E1680B439360236813F0080F40
:1017300007D00F4A936823F46043216943EAC10349
:101740009360FFF717FF0A4B9B68C3F30313094A23
:10175000D35CD840084B18600020FEF7E9FE00205B
:1017600070BD01207047012070BD00BF003C0240E9
:1017700000380240C437000810000020014B1868F0
:10178000704700BF1000002008B5FFF7F7FF044BBB
:101790009B68C3F38223034AD35CD84008BD00BFD3
:1017A00000380240D437000808B5FFF7E7FF044BC4
:1017B0009B68C3F34233034AD35CD84008BD00BFE3
:1017C00000380240D4370008F0B583B004460368FF
:1017D00013F0010F0CD0A44B9A6822F400029A6017
:1017E0009A68C16A0A439A60C36AC3B1002700E0DD
:1017F0000027236813F4002F15D09B4AD2F88C30B1
:1018000023F44013616B0B43C2F88C30636BB3F568
:10181000801F06D0002B00F00581002504E0012781
:10182000E7E70127F6E70025236813F4801F0FD0B0
:101830008D4AD2F88C3023F44003A16B0B43C2F8DD
:101840008C30A36BB3F5800F00F0EE8003B9012557
:10185000236813F0200F40F0E980236813F0100F85
:101860000CD0814BD3F88C2022F08072C3F88C20EE
:10187000D3F88C20216B0A43C3F88C20236813F41F
:10188000804F08D0784AD2F8903023F44033E16D8D
:101890000B43C2F89030236813F4004F08D0724A0B
:1018A000D2F8903023F44023216E0B43C2F89030DD
:1018B000236813F4803F08D06B4AD2F8903023F4A9
:1018C0004013616E0B43C2F89030236813F0400F51
:1018D00008D0654AD2F8903023F00303E16B0B4344
:1018E000C2F89030236813F0800F08D05E4AD2F817
:1018F000903023F00C03216C0B43C2F89030236826
:1019000013F4807F08D0584AD2F8903023F0300387
:10191000616C0B43C2F89030236813F4007F08D049
:10192000514AD2F8903023F0C003A16C0B43C2F8A7
:101930009030236813F4806F08D04B4AD2F890306F
:1019400023F44073E16C0B43C2F89030236813F426
:10195000006F08D0444AD2F8903023F44063216DE0
:101960000B43C2F89030236813F4805F08D03E4ADE
:10197000D2F8903023F44053616D0B43C2F890309D
:10198000236813F4005F08D0374AD2F8903023F46C
:101990004043A16D0B43C2F89030236813F4001F3D
:1019A0000DD0314AD2F8903023F00063616F0B43C1
:1019B000C2F89030636FB3F1006F00F0A18023682C
:1019C00013F4802F08D0284AD2F8903023F04073C7
:1019D000E16E0B43C2F89030236813F4000F08D077
:1019E000214AD2F8903023F08053A16F0B43C2F804
:1019F0009030236813F0806F08D01B4AD2F89030E3
:101A000023F00053E16F0B43C2F89030002F79D1DF
:101A10002368B3F1007F75D0002D40F0E4800020F2
:101A200003B0F0BD0125FFE601270FE70E4B1A6C4E
:101A300042F080521A641B6C03F080530193019BA7
:101A40000A4A136843F480731360FEF7AFFD06463D
:101A5000064B1B6813F4807F0AD1FEF7A7FD801B9D
:101A60006428F5D90320DBE700380240007000400D
:101A70008E4B1B6F13F4407315D0A26A02F44072B0
:101A8000934210D0894B1A6F22F44072196F41F4BF
:101A900080311967196F21F4803119671A671B6F3C
:101AA00013F0010F12D1A36A03F44072B2F5407F24
:101AB0001DD07E4A936823F4F81393607B490B6F23
:101AC000A26AC2F30B0213430B67C6E6FEF76EFD74
:101AD0000646764B1B6F13F0020FE4D1FEF766FD4E
:101AE000801B41F288339842F3D9032098E76F486E
:101AF000826822F4F8126E4919400A438260DDE7D9
:101B000001255CE7694A136823F080631360FEF7E0
:101B10004DFD0646654B1B6813F0006F06D0FEF7BF
:101B200045FD801B6428F5D9032079E7236813F06D
:101B3000010F0ED0E36A63B95C4AD2F88430616861
:101B400003F0706343EA8113A16843EA0173C2F8AA
:101B50008430236813F4002F03D0626BB2F5801F2A
:101B60002AD013F4801F03D0A36BB3F5800F23D0CA
:101B7000236813F0007F0AD06268E3681B0643EA1B
:101B80008213A26843EA0273484AC2F88430474A83
:101B9000136843F080631360FEF708FD0646434B6D
:101BA0001B6813F0006F7FF437AFFEF7FFFC801B5C
:101BB0006428F4D9032033E73C4AD2F884106068E3
:101BC000E3681B0643EA801301F0E0410B43C2F8CF
:101BD0008430D2F88C3023F01F03E16901390B43C4
:101BE000C2F88C30C4E7314A136823F08053136085
:101BF000FEF7DCFC05462D4B1B6813F0005F06D09A
:101C0000FEF7D4FC401B6428F5D9032008E72368BD
:101C100013F4002F01D0626B22B113F4801F18D08F
:101C2000A36BB3B9214AD2F88830216903F4403359
:101C300043EA8113616943EA0163C2F88830D2F84C
:101C40008C3023F4F853216A013943EA0123C2F8A6
:101C50008C30236813F4001F03D0636FB3F1006F5F
:101C600013D0124A136843F080531360FEF79EFCB2
:101C700004460E4B1B6813F0005F14D1FEF796FC70
:101C8000001B6428F5D90320CAE60849D1F888204A
:101C90002069A3691B0443EA801302F070621343B6
:101CA000C1F88830DDE70020BAE600BF0038024006
:101CB000FFFCFF0F10B4036A046A24F001040462FD
:101CC000846924F0F00444EA021223F00A030B436F
:101CD000826103625DF8044B704710B4036A23F01D
:101CE000100303628469036A24F4704444EA0232F4
:101CF00023F0A00343EA0113826103625DF8044B01
:101D00007047836823F0700341F007010B43836041
:101D10007047704770B40368474A904214BF00226E
:101D20000122B0F1804F14BF144642F00104D4B92F
:101D3000424DA84214BF00250125414EB04254D067
:101D4000002D52D105F1804505F58235A84214BF1A
:101D50000025012506F50066B04202D00DB9002528
:101D600002E0012500E001251DB123F070034D685C
:101D70002B43002C3DD1314CA04214BF0024012440
:101D80002F4DA84250D0002C4ED104F1804404F5D0
:101D90008234A04214BF0024012405F50065A84246
:101DA00044D0002C42D1274CA04214BF002401246F
:101DB00005F59A35A8423BD0002C39D1224CA042DF
:101DC00014BF0024012405F50065A84232D0002C80
:101DD00030D11E4CA04214BF00240124A5F5963535
:101DE000A84204D01CB9002404E00125BCE701246A
:101DF00000E001241CB123F44073CC68234323F09A
:101E000080034C69234303608B68C3620B68836261
:101E10000F4B984208BF42F001020AB10B690363FD
:101E20000123436170BC70470124E3E70124E1E72B
:101E30000124DFE70124DDE7000001400008004045
:101E40000004004000440140001800400020004011
:101E500000040140A8B110B5044690F83D305BB1D4
:101E6000022384F83D30211D2068FFF753FF012332
:101E700084F83D30002010BD80F83C3001F010F9AE
:101E8000EEE701207047A8B110B5044690F83D3048
:101E90005BB1022384F83D30211D2068FFF73AFF33
:101EA000012384F83D30002010BD80F83C30FFF75E
:101EB00030FFEEE70120704770B4036A23F001039E
:101EC0000362036A44688569104A2A400D682A4300
:101ED00023F002038D682B430D4D0E4EA84218BF10
:101EE000B0420BD123F00803CD682B4323F0040349
:101EF00024F440744D692C438D692C434460826105
:101F00004A684263036270BC704700BF8CFFFEFFEB
:101F1000000401400000014070B4036A23F0100384
:101F20000362036A44688569124A2A400D6842EADE
:101F3000052223F020038D6843EA05130E4D0F4E52
:101F4000A84218BFB0420ED123F08003CD6843EA07
:101F5000051323F0400324F440644D6944EA8504EA
:101F60008D6944EA8504446082614A688263036241
:101F700070BC7047FF8CFFFE000401400000014070
:101F800070B4036A23F480730362036A4468C5690A
:101F9000124A2A400D682A4323F400738D6843EAED
:101FA00005230F4D0F4EA84218BFB0420ED123F4A7
:101FB0000063CD6843EA052323F4806324F440548E
:101FC0004D6944EA05148D6944EA05144460C26110
:101FD0004A68C263036270BC704700BF8CFFFEFF9B
:101FE000000401400000014070B4036A23F48053F0
:101FF0000362036A4468C5690D4A2A400D6842EAD3
:10200000052223F400538D6843EA0533094D0A4E37
:10201000A84218BFB04204D124F480444D6944EA78
:1020200085144460C2614A680264036270BC7047F0
:10203000FF8CFFFE000401400000014010B48468E2
:1020400024F47F4442EA032319430C4384605DF87F
:10205000044B704790F83C30012B7DD010B50446FE
:10206000012380F83C30022380F83D3002689068FC
:102070003A4B034093600B68402B59D010D9702B1A
:102080003ED01FD8502B49D0602B32D1CA68496846
:102090002068FFF722FE60212068FFF732FE28E06B
:1020A000102B4FD008D9202B51D0302B21D13021EB
:1020B0002068FFF726FE1CE0DBB900212068FFF74F
:1020C00020FE16E0B3F5805F0ED0B3F5005F10D1AF
:1020D000CB684A6889682068FFF7B0FF2268936878
:1020E00043F48043936004E0226891681C4B0B40EA
:1020F0009360012384F83D30002084F83C0010BD3B
:10210000CB684A6889682068FFF798FF2268916861
:10211000144B0B4043F077039360EAE7CA684968C1
:102120002068FFF7C7FD50212068FFF7EAFDE0E7D0
:10213000CA6849682068FFF7BDFD40212068FFF7A5
:10214000E0FDD6E710212068FFF7DBFDD1E7202175
:102150002068FFF7D6FDCCE7022070478800FEFF1D
:10216000F8FFFEFF88FFFEFF70B4036A23F480339C
:102170000362036A4468456D0D4A2A400D682A438C
:1021800023F400338D6843EA05430A4D0A4EA84202
:1021900018BFB04204D124F480344D6944EA0524C8
:1021A000446042654A688265036270BC704700BF44
:1021B0008FFFFEFF000401400000014070B4036A7D
:1021C00023F480130362036A4468456D0D4A2A4074
:1021D0000D6842EA052223F400138D6843EA055393
:1021E000094D0A4EA84218BFB04204D124F48024FD
:1021F0004D6944EA8524446042654A68C2650362C9
:1022000070BC7047FF8FFFFE0004014000000140DA
:1022100090F83C30012B21D070B4012380F83C3081
:1022200004686368A2680E4D0E4EAC4218BFB442FB
:1022300003D123F470034D682B4323F070030D6822
:102240002B4322F0800289680A43636003689A6026
:10225000002380F83C30184670BC7047022070475D
:10226000000401400000014038B590F83C30012BDB
:1022700000F092800D460446012380F83C30022392
:1022800080F83D30142A1ED8DFE802F00B1D1D1D1A
:10229000241D1D1D381D1D1D4B1D1D1D5F1D1D1DDC
:1022A00072000068FFF708FE2268936943F0080394
:1022B00093612268936923F0040393612268936910
:1022C00029690B439361012384F83D30002084F891
:1022D0003C0038BD0068FFF71FFE2268936943F495
:1022E000006393612268936923F480639361226899
:1022F0009369296943EA01239361E4E70068FFF7E2
:102300003FFE2268D36943F00803D3612268D36992
:1023100023F00403D3612268D36929690B43D36195
:10232000D1E70068FFF760FE2268D36943F40063D9
:10233000D3612268D36923F48063D3612268D369AF
:10234000296943EA0123D361BDE70068FFF70CFF69
:102350002268536D43F0080353652268536D23F0E0
:10236000040353652268536D29690B435365AAE73B
:102370000068FFF723FF2268536D43F40063536541
:102380002268536D23F4806353652268536D296975
:1023900043EA0123536596E7022038BD90F869307F
:1023A000DBB2212B01D002207047B0F852309BB233
:1023B00093B18368B3F5805F1AD00268C36C591C6F
:1023C000C1641B789362B0F852309BB2013B9BB260
:1023D000A0F85230002070470268136823F0800391
:1023E00013600268136843F04003136000207047D5
:1023F0000369002BE1D1C36C02681B88C3F3080397
:102400009362C36C0233C364DDE70268136823F090
:10241000C0031360202380F8693070470268136896
:1024200023F4907313600268936823F001039360B0
:10243000202380F86A30704738B590F86940E4B2DC
:10244000202C01D0022038BD002A18BF002930D02E
:1024500090F86830012B01D1022038BD13460446A4
:10246000012280F86820C164A0F85030A0F85230F2
:102470000025C566212280F86920026E0E48D063CF
:10248000226E0E481064226E0D48D064226E1565CF
:1024900022682832206EFEF765FC236840221A620B
:1024A00084F868502268936843F08003936028465C
:1024B00038BD012038BD00BF292500087725000858
:1024C000092600082DE9F04105460F4616469846B4
:1024D000069C2B68DB6937EA03030CBF012300234A
:1024E000B3421ED1B4F1FF3FF3D02CB1FEF75EF83A
:1024F000A0EB08008442ECD82A68136823F4D07358
:1025000013602A68936823F001039360202385F801
:10251000693085F86A30002385F868300320BDE80B
:10252000F0810020BDE8F08108B5836B0268126875
:1025300012F4807F0DD10022A3F8522019688A6816
:1025400022F080028A601A68136843F04003136027
:1025500008BD184600F00CFC08BD08B501680B6802
:1025600023F040030B60202380F8693000F000FC6A
:10257000002008BD704708B5806BFFF7FBFF08BD62
:10258000704708B5B0F85C2090F86A30DBB2222BB7
:1025900006D00268936943F008039361022008BDE6
:1025A0008368B3F5805F11D0436D591C41650168A4
:1025B000496AD2B20A401A70B0F85A309BB2013B55
:1025C0009BB2A0F85A306BB1002008BD0369002B04
:1025D000EAD1436D0168496A0A401A80436D0233AB
:1025E0004365E9E70268136823F490731360026897
:1025F000936823F001039360202380F86A30FFF78B
:10260000BFFF002008BD704710B5846B0023A4F8FD
:102610005A30A4F8523094F86930DBB2212B0CD038
:1026200094F86A30DBB2222B10D0E36E43F0100333
:10263000E3662046FFF7E7FF10BD23689B6813F0B1
:10264000800FEDD02046FFF7E0FEE9E723689B68A6
:1026500013F0400FE9D02046FFF7E0FEE5E7000069
:1026600038B504460268D3691068916813F00F0505
:1026700005D113F0200F02D010F0200F5FD1002DF4
:1026800073D011F0010102D110F4907F6DD013F0DE
:10269000010F07D010F4807F04D001251562E26E8F
:1026A0002A43E26613F0020F07D031B122680225F7
:1026B0001562E26E42F00402E26613F0040F07D0E6
:1026C00031B1226804251562E26E42F00202E26630
:1026D00013F0080F09D010F0200F00D129B12268A3
:1026E00008211162E26E0A43E266E26E002A48D0D7
:1026F00013F0200F02D010F0200F24D1E36E13F05E
:10270000080F04D123689B6813F0400F27D02046A0
:10271000FFF784FE23689A6812F0400F1BD09A6876
:1027200022F040029A60636E8BB11A4A1A65606E9D
:10273000FEF752FB28B3606E036D984738BD204604
:10274000FFF71FFF38BD2046FFF71BFFD6E72046E7
:10275000FFF759FF38BD2046FFF755FF38BD20462B
:10276000FFF751FF0023E36638BD13F0800F02D05E
:1027700010F0800F06D113F0400F02D010F0400F80
:1027800004D138BD2046FFF709FE38BD2046FFF7CB
:10279000E4FEF6E79927000808B5806B0023A0F84F
:1027A0005A30A0F85230FFF72EFF08BD38B5044666
:1027B00083680269134342691343C2691343016882
:1027C0000868A04A024013430B602268536823F450
:1027D0004053E1680B435360A369226A13432168A5
:1027E0008A6822F4306213438B602568964B9D42C1
:1027F0002BD0964B9D423CD0954B9D4252D0954B51
:102800009D4267D0944B9D427CD0944B9D4200F0FA
:102810009480934B9D4200F0AB80924B9D4200F020
:10282000C2801023E269B2F5004F00F0DB80082B74
:1028300000F26881DFE813F031013C0147016601D5
:1028400051016601660166015C0103F59433D3F81A
:10285000903003F00303032B03D8DFE803F0BF0637
:1028600004081023DEE70223DCE70423DAE7082369
:10287000D8E703F5FA33D3F8903003F00C030C2BB0
:1028800008D8DFE803F0AD0707070B0707070907BC
:1028900007070D001023C5E70223C3E70423C1E7A0
:1028A0000823BFE703F5F833D3F8903003F0300383
:1028B000102B0DD005D9202B08D0302B04D10823A4
:1028C000B0E70BB90023ADE71023ABE70223A9E77C
:1028D0000423A7E703F5F633D3F8903003F0C003E1
:1028E000402B0DD005D9802B08D0C02B04D1082354
:1028F00098E70BB9002395E7102393E7022391E7AC
:1029000004238FE703F5F433D3F8903003F44073D6
:10291000B3F5807F0FD007D9B3F5007F09D0B3F5A9
:10292000407F04D108237DE70BB900237AE7102309
:1029300078E7022376E7042374E703F59233D3F8AC
:10294000903003F44063B3F5806F0FD007D9B3F52F
:10295000006F09D0B3F5406F04D1082362E70BB9CB
:1029600001235FE710235DE702235BE7042359E7B8
:1029700003F5E033D3F8903003F44053B3F5805FB0
:102980000FD007D9B3F5005F09D0B3F5405F04D18C
:10299000082347E70BB9002344E7102342E702234B
:1029A00040E704233EE703F5DE33D3F8903003F429
:1029B0004043B3F5804F0FD007D9B3F5004F09D08E
:1029C000B3F5404F04D108232CE70BB9002329E7C6
:1029D000102327E7022325E7042323E7012321E728
:1029E00000231FE7082B55D8DFE803F00517225412
:1029F000405454544B00FEF7C7FE6268530803EB83
:102A00004003B3FBF2F39BB2002023F00F02C3F3A9
:102A1000420313432268D36038BDFEF7C5FE6268E7
:102A2000530803EB4003B3FBF2F39BB20020ECE747
:102A300062680D4B03EB5203B3FBF2F39BB2002031
:102A4000E3E700BFF369FFEF0010014000440040DE
:102A500000480040004C004000500040001401407D
:102A600000780040007C00400048E801FEF782FD4D
:102A70006268530803EB4003B3FBF2F39BB2002000
:102A8000C3E76268530803F58033B3FBF2F39BB2EC
:102A90000020BAE701200023B7E7FEF775FE636860
:102AA00000EB5300B0FBF3F080B2E860002038BDCB
:102AB000FEF77AFE636800EB5300B0FBF3F080B2E0
:102AC000E860002038BD62680F4B03EB5203B3FB94
:102AD000F2F39BB2EB60002038BDFEF74BFD63685C
:102AE00000EB5300B0FBF3F080B2E860002038BD8B
:102AF0006268530803F50043B3FBF2F39BB2EB604B
:102B0000002038BD012038BD0024F400436A13F0D2
:102B1000010F06D00268536823F40033816A0B4327
:102B20005360436A13F0020F06D00268536823F41F
:102B30008033C16A0B435360436A13F0040F06D01D
:102B40000268536823F48023016B0B435360436A8C
:102B500013F0080F06D00268536823F40043416B5A
:102B60000B435360436A13F0100F06D0026893685A
:102B700023F48053816B0B439360436A13F0200F5F
:102B800006D00268936823F40053C16B0B43936033
:102B9000436A13F0400F0AD00268536823F480138D
:102BA000016C0B435360036CB3F5801F0BD0436A79
:102BB00013F0800F06D00268536823F40023816C61
:102BC0000B43536070470268536823F4C003416CA1
:102BD0000B435360EBE710B582B004460023C36695
:102BE000FDF7E4FC2268126812F0080F09D12023D7
:102BF00084F8693084F86A30002084F8680002B0F4
:102C000010BD6FF07E430093034600224FF4001185
:102C10002046FFF757FC0028E9D00320EFE778B300
:102C200010B5044690F869300BB3242384F869305A
:102C30002268136823F0010313602046FFF7B6FDF6
:102C400001281FD0636ABBB92268536823F49043FC
:102C500053602268936823F02A0393602268136804
:102C600043F0010313602046FFF7B5FF10BD80F865
:102C7000683000F0B3FAD8E72046FFF747FFE3E7F4
:102C80000120704710BD000084B0134B1A6B42F056
:102C900001021A631A6B02F001020092009A1A6B89
:102CA00042F008021A631A6B02F008020192019ABC
:102CB0001A6B42F004021A631A6B02F004020292C9
:102CC000029A1A6B42F010021A631B6B03F0100396
:102CD0000393039B04B070470038024000B583B0F3
:102CE0000E4B1A6B42F400121A631B6B03F40013B1
:102CF0000193019B002211460D20FDF7E9FE0D20F6
:102D0000FDF716FF002211460F20FDF7E1FE0F2010
:102D1000FDF70EFF03B05DF804FB00BF0038024072
:102D2000F8B507460E4614460F4B18680F4B1B6844
:102D3000C31AC3F10B05954206D300F0EBFC0A4A17
:102D400013681C441460F8BD2A46F81800F0E2FC31
:102D5000641B22467119384600F0DCFC034B1B68EB
:102D60001C44014B1C60F8BD0C0000200800002032
:102D700008B5034B834200D008BD00F023FCFBE7FD
:102D800044010020064B984200D0704710B504461D
:102D9000FDF70EFD034B18602046FDF7E3FC10BD68
:102DA000FC00002038000020FEE7000000B585B0E0
:102DB00019481A4B036000234360836003618361F9
:102DC0000362C362164A8262C3600122C261036366
:102DD0004261FDF79DFCA8B90323009301230193F1
:102DE0000023029369460C48FDF788FD78B900225C
:102DF00011461220FDF76CFE1220FDF799FE05B07A
:102E00005DF804FB40F229110648FFF7CDFF40F2C0
:102E100033110448FFF7C8FFFC00002000200140E8
:102E20000100000F7C37000800B58FB02748284B01
:102E300003604FF4007343600023836040F6FF7229
:102E4000C26003618361FFF705F828BB0EA94FF448
:102E5000805341F8103D1D48FFF7FCF808BB1B48A4
:102E6000FFF711F810BB00230793099307A9174830
:102E7000FFF7CEF9F8B96023009300220192029285
:102E8000049269461148FFF7EFF9C8B90F4800F0FE
:102E900089F90FB05DF804FB4FF4E4710D48FFF7BA
:102EA00083FF4FF4E7710B48FFF77EFF40F2D31129
:102EB0000848FFF779FF4FF4ED710648FFF774FFFC
:102EC00040F2E3110348FFF76FFF00BFBC00002092
:102ED000000800407C37000808B51048104B03601C
:102EE0004FF4E133436000238360C36003610C222D
:102EF00042618361C36103624362FFF790FE40B9A0
:102F0000002211463420FDF7E3FD3420FDF710FECA
:102F100008BDFA210348FFF747FF00BF4401002026
:102F2000004C00407C37000800B5B5B02A4B1A6C45
:102F300042F080521A641B6C03F080530193019B92
:102F4000264A136823F4404343F480431360136814
:102F500003F440430293029B0223289301232B9303
:102F600010232C9300232E9328A8FEF719F938BBC1
:102F70000F2323930021249125912691279123A8A3
:102F8000FEF74AFB00BB4FF4007303930023159335
:102F900003A8FEF719FCD8B9FEF7F0FB104BA3FB12
:102FA00000308009FDF7D0FD0420FDF7E3FD00228D
:102FB00011464FF0FF30FDF78BFD35B05DF804FB97
:102FC000C6210848FFF7F0FED4210648FFF7ECFEC3
:102FD000DB210448FFF7E8FE0038024000700040A3
:102FE000D34D62107C37000800B58DB0FDF7C6FAEE
:102FF000FFF79AFFFFF748FEFFF770FEFFF7D6FED8
:10300000FFF712FFFFF768FF214800F0CDF92148D4
:1030100000F0BEFA204B09AC93E8070003C42280FD
:1030200006AC03F10C0207CA03C4228003AC03F10F
:10303000180207CA03C422806C46243393E80700B1
:1030400003C42280154C0A2209A92046FFF768FE16
:103050000B21204600F0E2FA0A2206A92046FFF7DB
:103060005FFE0B21204600F0D9FA0A2203A9204670
:10307000FFF756FE0B21204600F0D0FA0A226946DF
:103080002046FFF74DFE0B21204600F0C7FAFEE771
:10309000440100208C370008443700083C00002021
:1030A0000268094B9A4200D0704782B003F50C3396
:1030B0001A6C42F004021A641B6C03F004030193BF
:1030C000019B02B0F0E700BF0008004002680F4B10
:1030D0009A4200D0704700B587B003F58C335A6C24
:1030E00042F480725A645B6C03F480730093009B1B
:1030F00001230193032302930023039301A90448AE
:10310000FDF76CFF07B05DF804FB00BF0020014035
:103110000000024000B583B0214B1A6C42F080528F
:103120001A641A6C02F080520092009A5A6C42F4AF
:1031300080425A645B6C03F480430193019B03203B
:10314000FDF7B4FC002211466FF00B00FDF7C0FC48
:10315000002211466FF00A00FDF7BAFC002211466A
:103160006FF00900FDF7B4FC002211466FF0040077
:10317000FDF7AEFC002211466FF00300FDF7A8FC3E
:10318000002211466FF00100FDF7A2FC002211465B
:103190004FF0FF30FDF79CFC03B05DF804FB00BF6F
:1031A0000038024002680B4B9A4200D0704700B5CD
:1031B00087B04FF4805301930223029300220392BD
:1031C0000492059301A90448FDF708FF07B05DF8D4
:1031D00004FB00BF00080040000C024002682C4BBA
:1031E0009A4200D0704730B587B0044603F5F633F5
:1031F0001A6C42F400221A641B6C03F4002300933F
:10320000009B03230193022202920025039504935D
:103210000823059301A91F48FDF7E0FE1E481F4B38
:1032200003604FF00063436040238360C5604FF448
:103230008063036145618561C56105624562FDF793
:1032400029FDD8B9144B23669C631548154B0360C0
:103250004FF00063436000238360C3604FF48062DB
:10326000026143618361C36103624362FDF712FD42
:1032700048B90B4B63669C6307B030BDE7210A4831
:10328000FFF792FDDEE7F9210748FFF78DFDF0E734
:10329000004C004000000240B40100207060024079
:1032A0005C00002040600240A83700087047FEE73D
:1032B000FEE7FEE7FEE770477047704708B5FDF789
:1032C00069F9FDF768FC08BD08B50248FDF798FDEF
:1032D00008BD00BF5C00002008B50248FFF7C0F938
:1032E00008BD00BF4401002008B50248FDF788FD75
:1032F00008BD00BFB401002008B50248FDF75DFA23
:1033000008BD00BFFC00002010B40F4AD2F888307E
:1033100043F47003C2F888300C4B196841F0010186
:103320001960002098601C6809492140196009490A
:103330005960196821F480211960D8604FF000634A
:1033400093605DF8044B704700ED00E000380240E8
:10335000FFFFF6FE103000240D4B1868B8B110B511
:103360000C4B1C680C4B1B689C4201D24FF4005460
:10337000094B1A68A21A1B6892B208491944FFF750
:103380005BF80122064B1A70064B1C6010BD70479B
:10339000480000204C00002050000020480200207F
:1033A000180000205400002028B1044A10600020BA
:1033B000034B187070474FF0FF30704748000020F3
:1033C000180000202DE9F84306460C461D4B1B68EB
:1033D0008B4201D21B4B1C681B4B1B682344B3F56B
:1033E000005F15D2184D2B68224631461748184405
:1033F00000F090F92B6823442B60124A13681B1BC2
:103400001360134B1B785BB2C3B12046BDE8F88351
:103410000D4F3D68C5F500553868DFF830902A46F5
:103420003146484400F076F9A4EB0508424671198C
:10343000484600F06FF9C7F80080DEE7FFF78CFF21
:10344000E3E700BF140000204C00002048020020E9
:103450001800002008B50E4B30221A7078225A70DE
:10346000092305E030320A49CA540009013B5BB226
:10347000012B07DD00F00F02092AF3D93732044986
:10348000CA54F2E70A210248FFF79CFF08BD00BFBB
:103490001402002000B583B002A80A2300F8013D01
:1034A0000121FFF78FFF03B05DF804FB2DE9F8431E
:1034B000054640F6AA23994200D919460A22334B01
:1034C00083F82F200F0901F00F08002306E003EB1B
:1034D0004302023220202D49885401330E2BF6D9A5
:1034E000B8F1000F03D001370026102438E04FF068
:1034F0001008F9E744463BE003EB430C3031DFF8BA
:103500008C9009F80C1018E003EB430101313032C4
:10351000DFF878C00CF8012001339C4218D91A1842
:10352000AA5C110902F00F020929E5D903EB430C4B
:103530003731DFF8589009F80C10092AE4D903EB69
:103540004301013102F1370C104A02F801C0E3E7F0
:1035500076450FD004EB44010C48FFF733FF0136EA
:10356000B7420ED906FB04F007F1FF3E7645C1D005
:103570000023D2E704EB440101390448FFF722FF9E
:10358000EDE7FFF787FFBDE8F88300BF14020020D6
:1035900008B50021B1F5005F04D2435C0A2B01D0CD
:1035A0000131F7E70131FFF70DFF08BD08B5002134
:1035B000B1F5005F03D2435C0BB10131F8E7FFF7CF
:1035C00001FF08BD08B5104A1368104909685B1A65
:1035D0000F49086803440B601368B3F5005F02D31A
:1035E0000022094B1A60084B1968084A1160094A01
:1035F00012681B689A4202D0FFF7AEFE08BD002297
:10360000054B1A7008BD00BF540000205000002078
:10361000140000204C000020180000202DE9F0418B
:1036200080460F464FF48075002417E01048FFF7DE
:10363000BDFF04EB08063046FFF70CFF0D48FFF70F
:10364000B5FF2846FFF706FFFFF724FF294630465F
:10365000FFF72CFF2C443C20FCF7AEFFBC4204D209
:103660003B1B9D42E2D91D46E0E7BDE8F08100BF6B
:10367000DC370008EC370008DFF834D0002103E025
:103680000C4B5B58435004310B480C4B42189A4288
:10369000F6D30B4A02E0002342F8043B094B9A425E
:1036A000F9D3FFF731FE00F011F8FFF79DFC7047EA
:1036B0000000042004380008000000201C00002046
:1036C0001C00002048220020FEE7000070B50D4ECF
:1036D0000D4CA41BA4100025A54209D10B4E0C4C87
:1036E00000F024F8A41BA4100025A54205D170BD4C
:1036F00056F8253098470135EEE756F825309847BB
:103700000135F2E7FC370008FC370008FC370008F9
:103710000038000810B5431E0A44914200D110BD84
:1037200011F8014B03F8014FF7E70000F8B500BFAF
:10373000F8BC08BC9E467047F8B500BFF8BC08BC92
:043740009E467047EA
:103744000101010101010101010100000A0A0A0A43
:103754000A0A0A0A0A0A0000050505050505050501
:10376400050500000C0C0C0C0C0C0C0C0C0C0000D3
:1037740000061016000610162E2E5C5372635C6D44
:1037840061696E2E630000005541525420414C493A
:1037940056452042757474732062757474732121C4
:1037A4000A0000002E2E5C5372635C73746D333216
:1037B400663778785F68616C5F6D73702E630000A4
:1037C40000000000000000000102030406070809CD
:1037D40000000000010203044D656D44756D703AEC
:1037E40020506F7320000000204C656E2000000004
:0837F4005CCAFF7F0100000028
:0437FC0005020008BA
:04380000E1010008DA
:1038040001000000100000003C0000203C000020EB
:0C3814000024F40000200000FF00000071
:040000050800367940
:00000001FF
